:02000002B0004C
:1040000000400B001C530B00000006000C000502D2
:084010000401E50C00000000B2
:0440180044500B0005
:10401C0009480A49884208B505D0094A824202D0AB
:10402C00121A00F057FF0748074A0021121A00F035
:10403C005FFF014808BD00BF3CE6032088520B001F
:10404C00A8E60320A8E60320EDE7032070B5074E91
:10405C00074C00F00FFEA41BA4080025AC4200D1B5
:10406C0070BD56F8043B98470135F7E73C520B00FE
:10407C0060520B0000F013B808B500F027F8BDE84B
:10408C00084000F0AFBD00F00DBA00F013BA007894
:10409C00B0FA80F04009704701230370704708B5EF
:1040AC0000F01AFD4FF4165100F00AFD00F0E6FE88
:1040BC004FF4165100F0AEFC0121022000F04AFE34
:1040CC00BDE808400021032000F044BE10B500F00C
:1040DC00D5FE03681B699847002828DD00F0CEFE4A
:1040EC0003685B699847C4B200F0F6FC214600F007
:1040FC00E6FB312C05D10121BDE81040022000F077
:10410C003ABE302C01D10021F6E73F2C0FD1032011
:10411C0000F04AFE064C00280CBF312330232370DC
:10412C0000F0ACFE2178BDE8104000F0B9BB10BD2A
:10413C00B4E6032010B5074B074A9A600024C3E984
:10414C000044032000F022F921460120BDE8104074
:10415C0000F024B9A8E603200000FFFF08B5024BCD
:10416C001B685B6C019308BD4802030008B5024B49
:10417C001B685B68019308BD1802030008B5024B6D
:10418C001B685B69019308BD1802030008B5024B5C
:10419C001B689B68019308BD2C02030008B5024BF9
:1041AC001B68DB68019308BD2C02030008B5024BA9
:1041BC001B681B69019308BD2C02030008B5024B58
:1041CC001B685B69019308BD2C02030008B5024B08
:1041DC001B681B6A019308BD2802030008B5024B3B
:1041EC001B685B6A019308BD2802030008B5024BEB
:1041FC001B689B6A019308BD2802030008B5024B9B
:10420C001B68DB6A019308BD2802030008B5024B4A
:10421C001B681B6B019308BD2802030008B5024BF9
:10422C001B685B6B019308BD2802030008B5024BA9
:10423C001B681B6C019308BD2802030008B5024BD8
:10424C001B685B69019308BD6402030008B5024B4F
:10425C001B689B68019308BD6802030008B5024BFC
:10426C001B68DB68019308BD6802030008B5024BAC
:10427C001B68DB69019308BD3002030008B5024BD3
:10428C001B681B6A019308BD3002030008B5024B82
:10429C001B68DB68019308BD3C02030008B5024BA8
:1042AC001B681B69019308BD3C02030008B5024B57
:1042BC001B685B69019308BD3C02030008B5024B07
:1042CC001B689B69019308BD3C02030008B5024BB7
:1042DC001B68DB69019308BD3C02030008B5024B67
:1042EC001B681B6A019308BD3C02030008B5024B16
:1042FC001B689B6A019308BD3C02030008B5024B86
:10430C001B68DB6A019308BD3C02030008B5024B35
:10431C001B681B6C019308BD3C02030008B5024BE3
:10432C001B681B68019308BD4C02030008B5024BC7
:10433C001B685B68019308BD4C02030008B5024B77
:10434C001B681B69019308BD4C02030008B5024BA6
:10435C001B685B69019308BD4C02030008B5024B56
:10436C001B689B69019308BD4C02030008B5024B06
:10437C001B68DB69019308BD4C02030008B5024BB6
:10438C001B681B6A019308BD4C02030008B5024B65
:10439C001B685B68019308BD2002030008B5024B43
:1043AC001B68DB6A019308BD2002030008B5034BB0
:1043BC001B68D3F88830019308BD0000200203006D
:1043CC0008B5034B1B68D3F89430019308BD00006B
:1043DC002002030008B5024B1B68DB6B019308BD80
:1043EC004402030008B5024B1B685B68019308BDCF
:1043FC004002030008B5024B1B689B68019308BD83
:10440C004002030008B5024B1B68DB68019308BD32
:10441C004002030008B5024B1B681B69019308BDE1
:10442C004002030008B5024B1B685B69019308BD91
:10443C004002030008B5024B1B689B69019308BD41
:10444C004002030008B5024B1B68DB69019308BDF1
:10445C004002030008B5024B1B681B6A019308BDA0
:10446C004002030008B5024B1B681B6B019308BD8F
:10447C004002030008B5024B1B685B6B019308BD3F
:10448C004002030008B5024B1B681B6C019308BD6E
:10449C004002030008B5024B1B685B6C019308BD1E
:1044AC004002030008B5024B1B681B68019308BD52
:1044BC001C02030008B5024B1B685B68019308BD26
:1044CC001C02030008B5024B1B681B6C019308BD52
:1044DC001C02030008B5024B1B685B6C019308BD02
:1044EC001C020300024800230360FFF737BE00BF25
:1044FC00B8E60320002240681146FFF7ABBF00224C
:10450C0040681146FFF7B6BF40680022FFF7AABF0C
:10451C004068002281F00101FFF794BF002340683E
:10452C001A461946FFF786BF002340681A461946FB
:10453C00FFF778BF002240681146FFF76BBF0022DF
:10454C0040681146FFF756BF406800220221FFF772
:10455C0059BF002340681A46FFF744BF024B0322A1
:10456C005A60024A1A607047BCE6032060500B0088
:10457C007047F8B5064615460C468F18BC4206D057
:10458C00336814F8011B9B6830469847F6E72846B9
:10459C00F8BD007C0022FFF719BE007C0021FFF75C
:1045AC001DBE007C0021FFF721BE007C0021FFF71F
:1045BC0025BE007C0021FFF729BE10B5142104464E
:1045CC00FFF763FD204610BD10B54FF47A73044617
:1045DC0008460021C4E90113034B236020741146E3
:1045EC00FFF724FE204610BD9C500B00704710B501
:1045FC0018210446FFF749FD204610BDF0B5037D98
:10460C00062B8DB00E4600F104074FF0000412D0BB
:10461C0000F1080515F8011D0A22304600F059F981
:10462C00AF42044419D0002CF4D02E21304600F0B7
:10463C0037F90444EEE72F236A4639460A208DF8F1
:10464C000040FFF7FBFD684600F088FC336802462B
:10465C00DB68694630469847044620460DB0F0BDED
:10466C0010B5054B0446112240F8043B002100F024
:10467C003FFC204610BD00BFC4500B000346074A48
:10468C0010B543F8042B01F1100251F8044B43F818
:10469C00044B9142F9D10A781A7010BDC4500B002A
:1046AC0010B59DF8084044EA032343EA024242EA6B
:1046BC00016104234160037510BD000007B5064B72
:1046CC000360CB7800938B784A780978FFF7E8FF82
:1046DC0003B05DF804FB00BFC4500B00014B024A51
:1046EC001A607047C4E60320D0500B0000234068CA
:1046FC001A46FFF777BE406800220221FFF782BE00
:10470C00002240681146FFF775BE00224068114632
:10471C00FFF780BE002340681A461946FFF782BE99
:10472C00002340681A461946FFF784BE40680021F2
:10473C00FFF7A8BE40680021FFF7ACBE406800221E
:10474C0081F00101FFF77EBE40680022FFF78ABEB0
:10475C00002240681146FFF78DBE002240681146CA
:10476C00FFF778BE2DE9F04395B014460D46074689
:10477C00FFF776FF00211C220DA8009100F0B8FB7A
:10478C0040230C9320466B460CAA0021FFF766FDD4
:10479C00044600284BD1024601216868FFF73AFE17
:1047AC000221804622466868FFF734FE009E81464F
:1047BC002146002E3BD0002939D17368022B03D03F
:1047CC000A2B11D0F669F4E7B8F1000FFAD0716931
:1047DC0006A8043107ADFFF771FF0FCD3C1D0FC4C8
:1047EC002B6823704146EDE7B9F1000FEAD07469EC
:1047FC00102201A800F07CFB06238DF8143001ADCB
:10480C0004F108031834186859682A4603C208339F
:10481C00A3421546F7D101A906A807ADFFF72EFF55
:10482C000FCD3C1D0FC42B6823704946CAE7009876
:10483C00FFF70CFD384615B0BDE8F083024B034A78
:10484C001A6000225A607047C8E60320DC500B0047
:10485C00F8B506460D468F180024BD420CD03368BF
:10486C0015F8011B9B6830469847031E01DB1C445E
:10487C00F3E7002C08BF1C462046F8BD13B50446D0
:10488C00084659B1019100F069FB23680199DB6876
:10489C000246204602B0BDE81040184702B010BDD9
:1048AC0003689B68184738B50D210546FFF7F8FFDC
:1048BC000A2104462846FFF7F3FF204438BD38B5DB
:1048CC000546FFF7EDFF04462846FFF7ECFF2044B2
:1048DC0038BD30B58BB00023012A8DF8243098BF39
:1048EC000A2209AC0D46B1FBF2F101FB125303F0A5
:1048FC00FF03092B94BF30333733DBB2AA4204F8E1
:10490C00013DEFD92146FFF7B9FF0BB030BD0000D8
:10491C00014B00229A607047D0E6032010B5044684
:10492C0008462170FFF7A2FC00236360204610BDEF
:10493C00054B02221A60054B054A9A600020C3E918
:10494C000000FFF723BD00BFECE60320E0E60320E8
:10495C000000FFFF024B1A68024B1A60704700BF41
:10496C003CE60320F0E6032070474174704708B51D
:10497C00007CFFF7BBFC20EAE07008BD08B5007CAA
:10498C00FFF78CFC20EAE07008BD08B5007CFFF74F
:10499C0095FC40EAE07008BD08B5007CFFF786FC8A
:1049AC0040EAE07008BD007CFFF790BC37B5457C51
:1049BC0004462DB1207C03B0BDE83040FFF766BC47
:1049CC00007C0191FFF792FC00280199F2DC28464B
:1049DC0003B030BD10B514210446FFF756FB20463A
:1049EC0010BD000010B54FF47A730446084611460A
:1049FC000022C4E90123044B236001232074637457
:104A0C00FFF784FC204610BD34510B00007C0023C2
:104A1C00FFF774BC0022FFF7F9BF41747047704771
:104A2C00704708B50021007CFFF798FC40EAE07065
:104A3C0008BD08B50121007CFFF790FC40EAE0704E
:104A4C0008BD08B5007CFFF781FC20EAE07008BDCA
:104A5C0008B5007CFFF772FC20EAE07008BD13B5C6
:104A6C000446007C0191FFF771FC0028019901DCE0
:104A7C00607C20B1207CFFF779FC20EAE07002B06A
:104A8C0010BD007CFFF77ABC10B514210446FFF76B
:104A9C00FCFA204610BD000010B54FF47A730446A2
:104AAC0008460021C4E90113044B23600123207440
:104ABC0063741146FFF732FC204610BD64510B00A5
:104ACC00007C0022FFF732BC10B5142204460021F2
:104ADC0000F00EFA204610BD10B50F4C88B003A89C
:104AEC00FFF7F2FF2178BFF35B8F11F001010FD1BB
:104AFC0020460191FFF7CBFA019948B103AA074868
:104B0C00FFF7CAFF2046FFF7C7FA054800F0DCF9AB
:104B1C00024808B010BD00BFF4E60320F8E60320FD
:104B2C002B4A0B00002240681146FFF773BC002291
:104B3C0040681146FFF78EBC002240681146FFF713
:104B4C0099BC40680022FFF78DBC4068002281F0C0
:104B5C000101FFF777BC002340681A461946FFF79E
:104B6C0069BC002340681A461946FFF75BBC00225B
:104B7C0040681146FFF73EBC406800220221FFF757
:104B8C0041BC002340681A46FFF72CBC024B0422A0
:104B9C005A60024A1A6070470CE7032094510B00CC
:104BAC00014B1860704700BF40E6032008B50B4B63
:104BBC0043B1FFF791FF03681B699847002801DD9B
:104BCC00AFF30080064B43B100F058F903681B6942
:104BDC009847002801DDAFF3008008BD00000000FD
:104BEC000000000008B5FFF7E1FFFFF7C7FA014B23
:104BFC00186008BD28E703200548064A064908B591
:104C0C00121A00F067F9054B054A1A6008BD00BF7F
:104C1C0000F4032004F4032084520B0000F403205E
:104C2C001E1C279A07B5002300931A466FF07701D4
:104C3C00FFF7C6FB03B05DF804FB000007B5438823
:104C4C000A2B08D0502B0BD1094B1B684BB103B06E
:104C5C005DF804EB1847FFF7E5FF03B05DF804FBC4
:104C6C00002300931A466FF07701FFF7A9FBF4E7D6
:104C7C0018E7032010B512480021FFF72BFC114B4D
:104C8C001A68114B9A42114B0CBF012200221A7068
:104C9C0001D0FFF7B1FFFFF769FA044600F030F9D5
:104CAC000B4B13B12046AFF3008000210848FFF7EF
:104CBC0091FBBDE8104007480021FFF777BB00BF10
:104CCC00AD4B0B0000F403201E1C279A14E70320A5
:104CDC0000000000494C0B00232813B502D900201A
:104CEC0002B010BDA0F10B03022B1AD8174C21787F
:104CFC00BFF35B8F11F001010BD120460191FFF73F
:104D0C00C6F9019928B11248FFF708FE2046FFF7B3
:104D1C00C3F90F4B1878FFF7B1FA0028DFD1012047
:104D2C00DEE7012809D800F069F80021007CFFF7C4
:104D3C0075FA80F00100C0B2D2E709380128EED82C
:104D4C0000F09CF8007CFFF7C9FAF2E71CE703209F
:104D5C0020E70320232838B504460D460AD8FF293E
:104D6C0008D0FFF7B9FF28B129462046BDE83840E6
:104D7C00FFF70CBA38BD38B504460D46FFF70EFAEE
:104D8C00FF2810D0062804D84D2323FA00F0C307BF
:104D9C0009D42046FFF7A0FF28B129462046BDE8DC
:104DAC003840FFF703BA38BD10B50446FFF7F6F9E3
:104DBC00031FDBB2012B08D92046FFF78DFF20B172
:104DCC002046BDE81040FFF7F9B9002010BD704730
:104DDC0038B5202514230446036085600561064917
:104DEC00284600F06FF804496060284600F06AF825
:104DFC00E060204638BD00BFC8510B0030B50E4DE9
:104E0C002978BFF35B8F11F0010487B011D12846CC
:104E1C00FFF73DF968B101A8FFF7DAFF01AA2146B7
:104E2C000648FFF7D1FB2846FFF736F9044800F097
:104E3C004BF8024807B030BD2CE7032030E70320C5
:104E4C00DB4D0B007047000038B5044614252A468C
:104E5C00002100F04DF82580402507492581284682
:104E6C00258200F02FF804496060284600F02AF8EB
:104E7C00E060204638BD00BFC8510B0030B50E4D68
:104E8C002978BFF35B8F11F0010487B011D128464C
:104E9C00FFF7FDF868B101A8FFF7D6FF01AA21467C
:104EAC000648FFF79FFD2846FFF7F6F8044800F088
:104EBC000BF8024807B030BD44E7032048E7032055
:104ECC00514E0B00FFF7DFB8002301461A46184677
:104EDC0000F04CB80A44914200F1FF3300D1704706
:104EEC0010B511F8014B03F8014F9142F9D110BDE7
:104EFC0002440346934200D1704703F8011BF9E7C3
:104F0C0038B5104B1D68AB6B0446B3B91820FFF7CE
:104F1C00C9FA0246A86320B90B4B0C484221FFF793
:104F2C00D1FA0B490B4BC0E900130B4B83600B23DD
:104F3C00838100210120C2E90401AB6B00221C61BA
:104F4C005A6138BD40E60320C9510B00E0510B00FB
:104F5C000E33CDAB34126DE6ECDE0500034613F8D0
:104F6C00012B002AFBD1181A013870472DE9F843A0
:104F7C00DFF8B8800646D8F800001F460D4691466B
:104F8C0000F056F8254B1C6834B9254C1C60254B99
:104F9C0013B11B68C4F8883063681F2B07DDD8F881
:104FAC00000000F047F84FF0FF30BDE8F8834EB337
:104FBC00D4F8880088B91C4B23B9D8F8000000F04D
:104FCC0038F8F0E74FF48470FFF76CFA0028F4D04F
:104FDC000023C0E94033C4F88800636840F823908C
:104FEC0001229A4000EB8301D0F800311343C0F842
:104FFC000031022EC1F8807002BFD0F80431134387
:10500C00C0F804316368D8F800005A1C023362609F
:10501C0044F8235000F00EF80020C6E7E8E7032020
:10502C005CE7032000000000B1440B00A4E6032061
:10503C0070477047704700001D400B0059400B0033
:10504C0081400B0085400B000000000000000000B8
:10505C00000000005F450B0055450B004B450B0055
:10506C0041450B0035450B0029450B0039470B001A
:10507C0041470B001D450B0015450B000B450B0064
:10508C0001450B0071470B00000000000000000000
:10509C007D450B00C7450B009F450B007F450B0062
:1050AC00A7450B00AF450B00B7450B00BF450B00E8
:1050BC00000000000000000009460B00F9450B0041
:1050CC00FB450B0061707000000000000000000048
:1050DC00F9460B0003470B000D470B0017470B005D
:1050EC0021470B002D470B0039470B0041470B00A4
:1050FC0049470B0055470B005D470B0067470B00FA
:10510C0071470B0025592D256D2D25645425483AE2
:10511C00254D3A2553257A0061736374696D6500DA
:10512C00000000000000000075490B00E1490B0075
:10513C00B9490B005D480B0089490B00A5490B00D0
:10514C0097490B00B3490B0077490B007B490B00C7
:10515C0000000000000000002D4A0B00954A0B00D7
:10516C006B4A0B005D480B005D4A0B002F4A0B008D
:10517C003F4A0B008F4A0B004F4A0B00274A0B008B
:10518C0000000000000000008F4B0B00854B0B0053
:10519C007B4B0B00314B0B006F4B0B00634B0B002D
:1051AC0039470B0041470B00574B0B004F4B0B0083
:1051BC00454B0B003B4B0B0071470B000052454518
:1051CC004E54206D616C6C6F632073756363656501
:1051DC00646564002F746D702F6A656E6B696E73F5
:1051EC002D4743432D31302D706970656C696E65A8
:1051FC002D34385F32303230313132345F31363029
:10520C00363138303633392F7372632F6E65776CC5
:10521C0069622F6E65776C69622F6C6962632F739C
:10522C0074646C69622F72616E642E6300000000FE
:10523C0041410B00F1440B0069450B00E9460B00A2
:10524C0049480B001D490B003D490B0061490B00FF
:04525C00994B0B005F
:10526000040000001400000003000000474E550039
:105270009E31CCE10B5B32935E2D88511B3F1A5D52
:0452800085AC44E3D2
:045284000000000026
:1052880024510B0044E60320000000000000000049
:105298000000000000000000000000000000000006
:1052A80000000000000000000000000000000000F6
:1052B80000000000000000000000000000000000E6
:1052C80000000000000000000000000000000000D6
:1052D80000000000000000000000000000000000C6
:0C52E8000000000000000000ECE70320C4
:1052F400FFFFFFFF00000102030405060708090A77
:105304000B0C0D0E0F101112131415161718191A71
:085314001B1C1D1E1F202800B8
:04531C007856341279
:04000003B000401CED
:00000001FF
